{"abi":[{"type":"constructor","inputs":[],"stateMutability":"nonpayable"},{"type":"function","name":"dappLinkAddress","inputs":[],"outputs":[{"name":"","type":"address","internalType":"address"}],"stateMutability":"view"},{"type":"function","name":"fulfillRandomWords","inputs":[{"name":"_requestId","type":"uint256","internalType":"uint256"},{"name":"_randomWords","type":"uint256[]","internalType":"uint256[]"}],"outputs":[],"stateMutability":"nonpayable"},{"type":"function","name":"getRequestStatus","inputs":[{"name":"_requestId","type":"uint256","internalType":"uint256"}],"outputs":[{"name":"fulfilled","type":"bool","internalType":"bool"},{"name":"randomWords","type":"uint256[]","internalType":"uint256[]"}],"stateMutability":"view"},{"type":"function","name":"initialize","inputs":[{"name":"initialOwner","type":"address","internalType":"address"},{"name":"_dappLinkAddress","type":"address","internalType":"address"}],"outputs":[],"stateMutability":"nonpayable"},{"type":"function","name":"lastRequestId","inputs":[],"outputs":[{"name":"","type":"uint256","internalType":"uint256"}],"stateMutability":"view"},{"type":"function","name":"owner","inputs":[],"outputs":[{"name":"","type":"address","internalType":"address"}],"stateMutability":"view"},{"type":"function","name":"renounceOwnership","inputs":[],"outputs":[],"stateMutability":"nonpayable"},{"type":"function","name":"requestIds","inputs":[{"name":"","type":"uint256","internalType":"uint256"}],"outputs":[{"name":"","type":"uint256","internalType":"uint256"}],"stateMutability":"view"},{"type":"function","name":"requestMapping","inputs":[{"name":"","type":"uint256","internalType":"uint256"}],"outputs":[{"name":"fulfilled","type":"bool","internalType":"bool"}],"stateMutability":"view"},{"type":"function","name":"requestRandomWords","inputs":[{"name":"_requestId","type":"uint256","internalType":"uint256"},{"name":"_numWords","type":"uint256","internalType":"uint256"}],"outputs":[],"stateMutability":"nonpayable"},{"type":"function","name":"setDappLink","inputs":[{"name":"_dappLinkAddress","type":"address","internalType":"address"}],"outputs":[],"stateMutability":"nonpayable"},{"type":"function","name":"transferOwnership","inputs":[{"name":"newOwner","type":"address","internalType":"address"}],"outputs":[],"stateMutability":"nonpayable"},{"type":"event","name":"FillRandomWords","inputs":[{"name":"requestId","type":"uint256","indexed":false,"internalType":"uint256"},{"name":"randomWords","type":"uint256[]","indexed":false,"internalType":"uint256[]"}],"anonymous":false},{"type":"event","name":"Initialized","inputs":[{"name":"version","type":"uint64","indexed":false,"internalType":"uint64"}],"anonymous":false},{"type":"event","name":"OwnershipTransferred","inputs":[{"name":"previousOwner","type":"address","indexed":true,"internalType":"address"},{"name":"newOwner","type":"address","indexed":true,"internalType":"address"}],"anonymous":false},{"type":"event","name":"RequestSent","inputs":[{"name":"requestId","type":"uint256","indexed":false,"internalType":"uint256"},{"name":"_numWords","type":"uint256","indexed":false,"internalType":"uint256"},{"name":"current","type":"address","indexed":false,"internalType":"address"}],"anonymous":false},{"type":"error","name":"InvalidInitialization","inputs":[]},{"type":"error","name":"NotInitializing","inputs":[]},{"type":"error","name":"OwnableInvalidOwner","inputs":[{"name":"owner","type":"address","internalType":"address"}]},{"type":"error","name":"OwnableUnauthorizedAccount","inputs":[{"name":"account","type":"address","internalType":"address"}]}],"bytecode":{"object":"0x6080806040523460aa575f516020610a4f5f395f51905f525460ff8160401c16609b576002600160401b03196001600160401b038216016049575b6040516109a090816100af8239f35b6001600160401b0319166001600160401b039081175f516020610a4f5f395f51905f525581527fc7f505b2f371ae2175ee4913f4499e1f2633a7b5936321eed1cdaeb6115181d290602090a15f80603a565b63f92ee8a960e01b5f5260045ffd5b5f80fdfe60806040526004361015610011575f80fd5b5f3560e01c80631b739ef11461065857806338ba461414610467578063485cc955146102f2578063715018a61461028b57806382e215ab1461025c5780638796ba8c146102255780638da5cb5b146101f1578063996869d0146101ae578063d8a4676f14610111578063f0c28a41146100e9578063f2fde38b146100be5763fc2a88c31461009d575f80fd5b346100ba575f3660031901126100ba576020600154604051908152f35b5f80fd5b346100ba5760203660031901126100ba576100e76100da6107e8565b6100e26108cc565b61085b565b005b346100ba575f3660031901126100ba576002546040516001600160a01b039091168152602090f35b346100ba5760203660031901126100ba57600435805f52600360205260ff60405f205416905f526003602052600160405f200190604051808360208295549384815201905f5260205f20925f5b818110610195575050610173925003836107c6565b61019160405192839215158352604060208401526040830190610828565b0390f35b845483526001948501948794506020909301920161015e565b346100ba5760203660031901126100ba576101c76107e8565b6101cf6108cc565b600280546001600160a01b0319166001600160a01b0392909216919091179055005b346100ba575f3660031901126100ba575f51602061092b5f395f51905f52546040516001600160a01b039091168152602090f35b346100ba5760203660031901126100ba576004355f548110156100ba5761024d6020916107fe565b90549060031b1c604051908152f35b346100ba5760203660031901126100ba576004355f526003602052602060ff60405f2054166040519015158152f35b346100ba575f3660031901126100ba576102a36108cc565b5f51602061092b5f395f51905f5280546001600160a01b031981169091555f906001600160a01b03167f8be0079c531659141344cd1fd0a4f28419497f9722a3daafe3b4186f6b6457e08280a3005b346100ba5760403660031901126100ba5761030b6107e8565b6024356001600160a01b038116908190036100ba575f51602061094b5f395f51905f525460ff8160401c16159267ffffffffffffffff82168015908161045f575b6001149081610455575b15908161044c575b5061043d5767ffffffffffffffff1982166001175f51602061094b5f395f51905f525561039c9184610411575b506103946108ff565b6100e26108ff565b6bffffffffffffffffffffffff60a01b60025416176002556103ba57005b68ff0000000000000000195f51602061094b5f395f51905f5254165f51602061094b5f395f51905f52557fc7f505b2f371ae2175ee4913f4499e1f2633a7b5936321eed1cdaeb6115181d2602060405160018152a1005b68ffffffffffffffffff191668010000000000000001175f51602061094b5f395f51905f52558461038b565b63f92ee8a960e01b5f5260045ffd5b9050158561035e565b303b159150610356565b85915061034c565b346100ba5760403660031901126100ba5760043560243567ffffffffffffffff81116100ba57366023820112156100ba5780600401359067ffffffffffffffff82116105ef578160051b60208101926104c360405194856107c6565b835260246020840191830101913683116100ba57602401905b8282106106485750506002546001600160a01b0316330390506106035760405191610506836107aa565b6001835260016020840193838552825f52600360205260405f209051151560ff8019835416911617815501925180519067ffffffffffffffff82116105ef57600160401b82116105ef5784548286558083106105c9575b50602001935f5260205f205f5b8281106105b5577ff3cb4deb0441dd096356debf166f879d78cadc19e4b94053c8bea6d3940de93a85856105b06040519283928352604060208401526040830190610828565b0390a1005b60019060208751970196818401550161056a565b855f528260205f2091820191015b8181106105e4575061055d565b5f81556001016105d7565b634e487b7160e01b5f52604160045260245ffd5b60405162461bcd60e51b815260206004820152601860248201527f446170704c696e6b5652462e6f6e6c79446170704c696e6b00000000000000006044820152606490fd5b81358152602091820191016104dc565b346100ba5760403660031901126100ba576004356106746108cc565b60209060405161068483826107c6565b5f81525f3681376001604051610699816107aa565b5f8152848101928352835f526003855260405f209051151560ff801983541691161781550190519081519167ffffffffffffffff83116105ef57600160401b83116105ef5784908254848455808510610782575b5001905f52835f205f5b8381106107705785855f5490600160401b8210156105ef577fe697eb68c0228bd7d4e553246a2a86e8402d0895e45092ef8ae87b4cfd29f01692610742836001606095015f556107fe565b81549060031b9084821b915f19901b19161790558160015560405191825260243590820152306040820152a1005b825182820155918501916001016106f7565b835f5284835f2091820191015b81811061079c57506106ed565b5f815587935060010161078f565b6040810190811067ffffffffffffffff8211176105ef57604052565b90601f8019910116810190811067ffffffffffffffff8211176105ef57604052565b600435906001600160a01b03821682036100ba57565b5f54811015610814575f805260205f2001905f90565b634e487b7160e01b5f52603260045260245ffd5b90602080835192838152019201905f5b8181106108455750505090565b8251845260209384019390920191600101610838565b6001600160a01b031680156108b9575f51602061092b5f395f51905f5280546001600160a01b0319811683179091556001600160a01b03167f8be0079c531659141344cd1fd0a4f28419497f9722a3daafe3b4186f6b6457e05f80a3565b631e4fbdf760e01b5f525f60045260245ffd5b5f51602061092b5f395f51905f52546001600160a01b031633036108ec57565b63118cdaa760e01b5f523360045260245ffd5b60ff5f51602061094b5f395f51905f525460401c161561091b57565b631afcd79f60e31b5f5260045ffdfe9016d09d72d40fdae2fd8ceac6b6234c7706214fd39c1cd1e609a0528c199300f0c57e16840df040f15088dc2f81fe391c3923bec73e23a9662efc9c229c6a00a26469706673582212206c9f482ad90e7d094470832310972106e422c973048756118dfd64bfa1cd27cf64736f6c634300081c0033f0c57e16840df040f15088dc2f81fe391c3923bec73e23a9662efc9c229c6a00","linkReferences":{}},"methodIdentifiers":{"dappLinkAddress()":"f0c28a41","fulfillRandomWords(uint256,uint256[])":"38ba4614","getRequestStatus(uint256)":"d8a4676f","initialize(address,address)":"485cc955","lastRequestId()":"fc2a88c3","owner()":"8da5cb5b","renounceOwnership()":"715018a6","requestIds(uint256)":"8796ba8c","requestMapping(uint256)":"82e215ab","requestRandomWords(uint256,uint256)":"1b739ef1","setDappLink(address)":"996869d0","transferOwnership(address)":"f2fde38b"},"storageLayout":{"storage":[{"astId":40197,"contract":"src/DappLinkVRF.sol:DappLinkVRF","label":"requestIds","offset":0,"slot":"0","type":"t_array(t_uint256)dyn_storage"},{"astId":40199,"contract":"src/DappLinkVRF.sol:DappLinkVRF","label":"lastRequestId","offset":0,"slot":"1","type":"t_uint256"},{"astId":40201,"contract":"src/DappLinkVRF.sol:DappLinkVRF","label":"dappLinkAddress","offset":0,"slot":"2","type":"t_address"},{"astId":40206,"contract":"src/DappLinkVRF.sol:DappLinkVRF","label":"requestMapping","offset":0,"slot":"3","type":"t_mapping(t_uint256,t_struct(RequestStatus)40194_storage)"}],"types":{"t_address":{"encoding":"inplace","label":"address","numberOfBytes":"20"},"t_array(t_uint256)dyn_storage":{"encoding":"dynamic_array","label":"uint256[]","numberOfBytes":"32","base":"t_uint256"},"t_bool":{"encoding":"inplace","label":"bool","numberOfBytes":"1"},"t_mapping(t_uint256,t_struct(RequestStatus)40194_storage)":{"encoding":"mapping","key":"t_uint256","label":"mapping(uint256 => struct DappLinkVRF.RequestStatus)","numberOfBytes":"32","value":"t_struct(RequestStatus)40194_storage"},"t_struct(RequestStatus)40194_storage":{"encoding":"inplace","label":"struct DappLinkVRF.RequestStatus","numberOfBytes":"64","members":[{"astId":40190,"contract":"src/DappLinkVRF.sol:DappLinkVRF","label":"fulfilled","offset":0,"slot":"0","type":"t_bool"},{"astId":40193,"contract":"src/DappLinkVRF.sol:DappLinkVRF","label":"randomWords","offset":0,"slot":"1","type":"t_array(t_uint256)dyn_storage"}]},"t_uint256":{"encoding":"inplace","label":"uint256","numberOfBytes":"32"}}},"id":26}